{
  "contractName": "PetsToken",
  "abi": [
    {
      "inputs": [
        {
          "internalType": "string",
          "name": "name",
          "type": "string"
        },
        {
          "internalType": "string",
          "name": "symbol",
          "type": "string"
        },
        {
          "internalType": "string",
          "name": "baseTokenURI",
          "type": "string"
        },
        {
          "internalType": "address",
          "name": "initialOwner",
          "type": "address"
        }
      ],
      "stateMutability": "nonpayable",
      "type": "constructor"
    },
    {
      "inputs": [],
      "name": "ERC721EnumerableForbiddenBatchMint",
      "type": "error"
    },
    {
      "inputs": [
        {
          "internalType": "address",
          "name": "sender",
          "type": "address"
        },
        {
          "internalType": "uint256",
          "name": "tokenId",
          "type": "uint256"
        },
        {
          "internalType": "address",
          "name": "owner",
          "type": "address"
        }
      ],
      "name": "ERC721IncorrectOwner",
      "type": "error"
    },
    {
      "inputs": [
        {
          "internalType": "address",
          "name": "operator",
          "type": "address"
        },
        {
          "internalType": "uint256",
          "name": "tokenId",
          "type": "uint256"
        }
      ],
      "name": "ERC721InsufficientApproval",
      "type": "error"
    },
    {
      "inputs": [
        {
          "internalType": "address",
          "name": "approver",
          "type": "address"
        }
      ],
      "name": "ERC721InvalidApprover",
      "type": "error"
    },
    {
      "inputs": [
        {
          "internalType": "address",
          "name": "operator",
          "type": "address"
        }
      ],
      "name": "ERC721InvalidOperator",
      "type": "error"
    },
    {
      "inputs": [
        {
          "internalType": "address",
          "name": "owner",
          "type": "address"
        }
      ],
      "name": "ERC721InvalidOwner",
      "type": "error"
    },
    {
      "inputs": [
        {
          "internalType": "address",
          "name": "receiver",
          "type": "address"
        }
      ],
      "name": "ERC721InvalidReceiver",
      "type": "error"
    },
    {
      "inputs": [
        {
          "internalType": "address",
          "name": "sender",
          "type": "address"
        }
      ],
      "name": "ERC721InvalidSender",
      "type": "error"
    },
    {
      "inputs": [
        {
          "internalType": "uint256",
          "name": "tokenId",
          "type": "uint256"
        }
      ],
      "name": "ERC721NonexistentToken",
      "type": "error"
    },
    {
      "inputs": [
        {
          "internalType": "address",
          "name": "owner",
          "type": "address"
        },
        {
          "internalType": "uint256",
          "name": "index",
          "type": "uint256"
        }
      ],
      "name": "ERC721OutOfBoundsIndex",
      "type": "error"
    },
    {
      "inputs": [
        {
          "internalType": "address",
          "name": "owner",
          "type": "address"
        }
      ],
      "name": "OwnableInvalidOwner",
      "type": "error"
    },
    {
      "inputs": [
        {
          "internalType": "address",
          "name": "account",
          "type": "address"
        }
      ],
      "name": "OwnableUnauthorizedAccount",
      "type": "error"
    },
    {
      "anonymous": false,
      "inputs": [
        {
          "indexed": true,
          "internalType": "address",
          "name": "owner",
          "type": "address"
        },
        {
          "indexed": true,
          "internalType": "address",
          "name": "approved",
          "type": "address"
        },
        {
          "indexed": true,
          "internalType": "uint256",
          "name": "tokenId",
          "type": "uint256"
        }
      ],
      "name": "Approval",
      "type": "event"
    },
    {
      "anonymous": false,
      "inputs": [
        {
          "indexed": true,
          "internalType": "address",
          "name": "owner",
          "type": "address"
        },
        {
          "indexed": true,
          "internalType": "address",
          "name": "operator",
          "type": "address"
        },
        {
          "indexed": false,
          "internalType": "bool",
          "name": "approved",
          "type": "bool"
        }
      ],
      "name": "ApprovalForAll",
      "type": "event"
    },
    {
      "anonymous": false,
      "inputs": [
        {
          "indexed": false,
          "internalType": "uint256",
          "name": "tokenId",
          "type": "uint256"
        },
        {
          "indexed": false,
          "internalType": "string",
          "name": "nombre",
          "type": "string"
        }
      ],
      "name": "MascotaTokenizada",
      "type": "event"
    },
    {
      "anonymous": false,
      "inputs": [
        {
          "indexed": true,
          "internalType": "address",
          "name": "previousOwner",
          "type": "address"
        },
        {
          "indexed": true,
          "internalType": "address",
          "name": "newOwner",
          "type": "address"
        }
      ],
      "name": "OwnershipTransferred",
      "type": "event"
    },
    {
      "anonymous": false,
      "inputs": [
        {
          "indexed": true,
          "internalType": "address",
          "name": "from",
          "type": "address"
        },
        {
          "indexed": true,
          "internalType": "address",
          "name": "to",
          "type": "address"
        },
        {
          "indexed": true,
          "internalType": "uint256",
          "name": "tokenId",
          "type": "uint256"
        }
      ],
      "name": "Transfer",
      "type": "event"
    },
    {
      "inputs": [
        {
          "internalType": "address",
          "name": "to",
          "type": "address"
        },
        {
          "internalType": "uint256",
          "name": "tokenId",
          "type": "uint256"
        }
      ],
      "name": "approve",
      "outputs": [],
      "stateMutability": "nonpayable",
      "type": "function"
    },
    {
      "inputs": [
        {
          "internalType": "address",
          "name": "owner",
          "type": "address"
        }
      ],
      "name": "balanceOf",
      "outputs": [
        {
          "internalType": "uint256",
          "name": "",
          "type": "uint256"
        }
      ],
      "stateMutability": "view",
      "type": "function"
    },
    {
      "inputs": [
        {
          "internalType": "uint256",
          "name": "tokenId",
          "type": "uint256"
        }
      ],
      "name": "getApproved",
      "outputs": [
        {
          "internalType": "address",
          "name": "",
          "type": "address"
        }
      ],
      "stateMutability": "view",
      "type": "function"
    },
    {
      "inputs": [
        {
          "internalType": "address",
          "name": "owner",
          "type": "address"
        },
        {
          "internalType": "address",
          "name": "operator",
          "type": "address"
        }
      ],
      "name": "isApprovedForAll",
      "outputs": [
        {
          "internalType": "bool",
          "name": "",
          "type": "bool"
        }
      ],
      "stateMutability": "view",
      "type": "function"
    },
    {
      "inputs": [],
      "name": "name",
      "outputs": [
        {
          "internalType": "string",
          "name": "",
          "type": "string"
        }
      ],
      "stateMutability": "view",
      "type": "function"
    },
    {
      "inputs": [],
      "name": "owner",
      "outputs": [
        {
          "internalType": "address",
          "name": "",
          "type": "address"
        }
      ],
      "stateMutability": "view",
      "type": "function"
    },
    {
      "inputs": [
        {
          "internalType": "uint256",
          "name": "tokenId",
          "type": "uint256"
        }
      ],
      "name": "ownerOf",
      "outputs": [
        {
          "internalType": "address",
          "name": "",
          "type": "address"
        }
      ],
      "stateMutability": "view",
      "type": "function"
    },
    {
      "inputs": [],
      "name": "renounceOwnership",
      "outputs": [],
      "stateMutability": "nonpayable",
      "type": "function"
    },
    {
      "inputs": [
        {
          "internalType": "address",
          "name": "from",
          "type": "address"
        },
        {
          "internalType": "address",
          "name": "to",
          "type": "address"
        },
        {
          "internalType": "uint256",
          "name": "tokenId",
          "type": "uint256"
        }
      ],
      "name": "safeTransferFrom",
      "outputs": [],
      "stateMutability": "nonpayable",
      "type": "function"
    },
    {
      "inputs": [
        {
          "internalType": "address",
          "name": "from",
          "type": "address"
        },
        {
          "internalType": "address",
          "name": "to",
          "type": "address"
        },
        {
          "internalType": "uint256",
          "name": "tokenId",
          "type": "uint256"
        },
        {
          "internalType": "bytes",
          "name": "data",
          "type": "bytes"
        }
      ],
      "name": "safeTransferFrom",
      "outputs": [],
      "stateMutability": "nonpayable",
      "type": "function"
    },
    {
      "inputs": [
        {
          "internalType": "address",
          "name": "operator",
          "type": "address"
        },
        {
          "internalType": "bool",
          "name": "approved",
          "type": "bool"
        }
      ],
      "name": "setApprovalForAll",
      "outputs": [],
      "stateMutability": "nonpayable",
      "type": "function"
    },
    {
      "inputs": [
        {
          "internalType": "bytes4",
          "name": "interfaceId",
          "type": "bytes4"
        }
      ],
      "name": "supportsInterface",
      "outputs": [
        {
          "internalType": "bool",
          "name": "",
          "type": "bool"
        }
      ],
      "stateMutability": "view",
      "type": "function"
    },
    {
      "inputs": [],
      "name": "symbol",
      "outputs": [
        {
          "internalType": "string",
          "name": "",
          "type": "string"
        }
      ],
      "stateMutability": "view",
      "type": "function"
    },
    {
      "inputs": [
        {
          "internalType": "uint256",
          "name": "index",
          "type": "uint256"
        }
      ],
      "name": "tokenByIndex",
      "outputs": [
        {
          "internalType": "uint256",
          "name": "",
          "type": "uint256"
        }
      ],
      "stateMutability": "view",
      "type": "function"
    },
    {
      "inputs": [
        {
          "internalType": "address",
          "name": "owner",
          "type": "address"
        },
        {
          "internalType": "uint256",
          "name": "index",
          "type": "uint256"
        }
      ],
      "name": "tokenOfOwnerByIndex",
      "outputs": [
        {
          "internalType": "uint256",
          "name": "",
          "type": "uint256"
        }
      ],
      "stateMutability": "view",
      "type": "function"
    },
    {
      "inputs": [
        {
          "internalType": "uint256",
          "name": "tokenId",
          "type": "uint256"
        }
      ],
      "name": "tokenURI",
      "outputs": [
        {
          "internalType": "string",
          "name": "",
          "type": "string"
        }
      ],
      "stateMutability": "view",
      "type": "function"
    },
    {
      "inputs": [],
      "name": "totalSupply",
      "outputs": [
        {
          "internalType": "uint256",
          "name": "",
          "type": "uint256"
        }
      ],
      "stateMutability": "view",
      "type": "function"
    },
    {
      "inputs": [
        {
          "internalType": "address",
          "name": "from",
          "type": "address"
        },
        {
          "internalType": "address",
          "name": "to",
          "type": "address"
        },
        {
          "internalType": "uint256",
          "name": "tokenId",
          "type": "uint256"
        }
      ],
      "name": "transferFrom",
      "outputs": [],
      "stateMutability": "nonpayable",
      "type": "function"
    },
    {
      "inputs": [
        {
          "internalType": "address",
          "name": "newOwner",
          "type": "address"
        }
      ],
      "name": "transferOwnership",
      "outputs": [],
      "stateMutability": "nonpayable",
      "type": "function"
    },
    {
      "inputs": [
        {
          "internalType": "string",
          "name": "_nombre",
          "type": "string"
        },
        {
          "internalType": "string",
          "name": "_raza",
          "type": "string"
        },
        {
          "internalType": "string",
          "name": "_color",
          "type": "string"
        },
        {
          "internalType": "string",
          "name": "_historiaClinica",
          "type": "string"
        },
        {
          "internalType": "string",
          "name": "_foto",
          "type": "string"
        }
      ],
      "name": "tokenizarMascota",
      "outputs": [],
      "stateMutability": "nonpayable",
      "type": "function"
    },
    {
      "inputs": [
        {
          "internalType": "address",
          "name": "_nuevoDueno",
          "type": "address"
        },
        {
          "internalType": "uint256",
          "name": "_tokenId",
          "type": "uint256"
        }
      ],
      "name": "transferirMascota",
      "outputs": [],
      "stateMutability": "nonpayable",
      "type": "function"
    },
    {
      "inputs": [
        {
          "internalType": "uint256",
          "name": "_tokenId",
          "type": "uint256"
        }
      ],
      "name": "obtenerInformacionMascota",
      "outputs": [
        {
          "components": [
            {
              "internalType": "string",
              "name": "nombre",
              "type": "string"
            },
            {
              "internalType": "string",
              "name": "raza",
              "type": "string"
            },
            {
              "internalType": "string",
              "name": "color",
              "type": "string"
            },
            {
              "internalType": "string",
              "name": "historiaClinica",
              "type": "string"
            },
            {
              "internalType": "string",
              "name": "foto",
              "type": "string"
            }
          ],
          "internalType": "struct PetsToken.Mascota",
          "name": "",
          "type": "tuple"
        }
      ],
      "stateMutability": "view",
      "type": "function"
    },
    {
      "inputs": [],
      "name": "getBaseTokenURI",
      "outputs": [
        {
          "internalType": "string",
          "name": "",
          "type": "string"
        }
      ],
      "stateMutability": "view",
      "type": "function"
    }
  ],
  "bytecode": "0x608060405234801562000010575f80fd5b5060405162003bc738038062003bc78339818101604052810190620000369190620003a8565b808484815f9081620000499190620006ab565b5080600190816200005b9190620006ab565b5050505f73ffffffffffffffffffffffffffffffffffffffff168173ffffffffffffffffffffffffffffffffffffffff1603620000d1575f6040517f1e4fbdf7000000000000000000000000000000000000000000000000000000008152600401620000c89190620007a0565b60405180910390fd5b620000e281620000ff60201b60201c565b5081600b9081620000f49190620006ab565b5050505050620007bb565b5f600a5f9054906101000a900473ffffffffffffffffffffffffffffffffffffffff16905081600a5f6101000a81548173ffffffffffffffffffffffffffffffffffffffff021916908373ffffffffffffffffffffffffffffffffffffffff1602179055508173ffffffffffffffffffffffffffffffffffffffff168173ffffffffffffffffffffffffffffffffffffffff167f8be0079c531659141344cd1fd0a4f28419497f9722a3daafe3b4186f6b6457e060405160405180910390a35050565b5f604051905090565b5f80fd5b5f80fd5b5f80fd5b5f80fd5b5f601f19601f8301169050919050565b7f4e487b71000000000000000000000000000000000000000000000000000000005f52604160045260245ffd5b6200022382620001db565b810181811067ffffffffffffffff82111715620002455762000244620001eb565b5b80604052505050565b5f62000259620001c2565b905062000267828262000218565b919050565b5f67ffffffffffffffff821115620002895762000288620001eb565b5b6200029482620001db565b9050602081019050919050565b5f5b83811015620002c0578082015181840152602081019050620002a3565b5f8484015250505050565b5f620002e1620002db846200026c565b6200024e565b9050828152602081018484840111156200030057620002ff620001d7565b5b6200030d848285620002a1565b509392505050565b5f82601f8301126200032c576200032b620001d3565b5b81516200033e848260208601620002cb565b91505092915050565b5f73ffffffffffffffffffffffffffffffffffffffff82169050919050565b5f620003728262000347565b9050919050565b620003848162000366565b81146200038f575f80fd5b50565b5f81519050620003a28162000379565b92915050565b5f805f8060808587031215620003c357620003c2620001cb565b5b5f85015167ffffffffffffffff811115620003e357620003e2620001cf565b5b620003f18782880162000315565b945050602085015167ffffffffffffffff811115620004155762000414620001cf565b5b620004238782880162000315565b935050604085015167ffffffffffffffff811115620004475762000446620001cf565b5b620004558782880162000315565b9250506060620004688782880162000392565b91505092959194509250565b5f81519050919050565b7f4e487b71000000000000000000000000000000000000000000000000000000005f52602260045260245ffd5b5f6002820490506001821680620004c357607f821691505b602082108103620004d957620004d86200047e565b5b50919050565b5f819050815f5260205f209050919050565b5f6020601f8301049050919050565b5f82821b905092915050565b5f600883026200053d7fffffffffffffffffffffffffffffffffffffffffffffffffffffffffffffffff8262000500565b62000549868362000500565b95508019841693508086168417925050509392505050565b5f819050919050565b5f819050919050565b5f620005936200058d620005878462000561565b6200056a565b62000561565b9050919050565b5f819050919050565b620005ae8362000573565b620005c6620005bd826200059a565b8484546200050c565b825550505050565b5f90565b620005dc620005ce565b620005e9818484620005a3565b505050565b5b818110156200061057620006045f82620005d2565b600181019050620005ef565b5050565b601f8211156200065f576200062981620004df565b6200063484620004f1565b8101602085101562000644578190505b6200065c6200065385620004f1565b830182620005ee565b50505b505050565b5f82821c905092915050565b5f620006815f198460080262000664565b1980831691505092915050565b5f6200069b838362000670565b9150826002028217905092915050565b620006b68262000474565b67ffffffffffffffff811115620006d257620006d1620001eb565b5b620006de8254620004ab565b620006eb82828562000614565b5f60209050601f83116001811462000721575f84156200070c578287015190505b6200071885826200068e565b86555062000787565b601f1984166200073186620004df565b5f5b828110156200075a5784890151825560018201915060208501945060208101905062000733565b868310156200077a578489015162000776601f89168262000670565b8355505b6001600288020188555050505b505050505050565b6200079a8162000366565b82525050565b5f602082019050620007b55f8301846200078f565b92915050565b6133fe80620007c95f395ff3fe608060405234801561000f575f80fd5b506004361061014b575f3560e01c806370a08231116100c1578063b88d4fde1161007a578063b88d4fde14610399578063bdc32be0146103b5578063c87b56dd146103d3578063d268489214610403578063e985e9c514610433578063f2fde38b146104635761014b565b806370a08231146102eb578063715018a61461031b5780638da5cb5b1461032557806395d89b411461034357806399ece71714610361578063a22cb4651461037d5761014b565b806323b872dd1161011357806323b872dd146102075780632f745c591461022357806342842e0e14610253578063488f019c1461026f5780634f6ccce71461028b5780636352211e146102bb5761014b565b806301ffc9a71461014f57806306fdde031461017f578063081812fc1461019d578063095ea7b3146101cd57806318160ddd146101e9575b5f80fd5b610169600480360381019061016491906125ce565b61047f565b6040516101769190612613565b60405180910390f35b6101876104f8565b60405161019491906126b6565b60405180910390f35b6101b760048036038101906101b29190612709565b610587565b6040516101c49190612773565b60405180910390f35b6101e760048036038101906101e291906127b6565b6105a2565b005b6101f16105b8565b6040516101fe9190612803565b60405180910390f35b610221600480360381019061021c919061281c565b6105c4565b005b61023d600480360381019061023891906127b6565b6106c3565b60405161024a9190612803565b60405180910390f35b61026d6004803603810190610268919061281c565b610767565b005b610289600480360381019061028491906127b6565b610786565b005b6102a560048036038101906102a09190612709565b610821565b6040516102b29190612803565b60405180910390f35b6102d560048036038101906102d09190612709565b610893565b6040516102e29190612773565b60405180910390f35b6103056004803603810190610300919061286c565b6108a4565b6040516103129190612803565b60405180910390f35b61032361095a565b005b61032d61096d565b60405161033a9190612773565b60405180910390f35b61034b610995565b60405161035891906126b6565b60405180910390f35b61037b600480360381019061037691906129c3565b610a25565b005b61039760048036038101906103929190612af0565b610b43565b005b6103b360048036038101906103ae9190612bcc565b610b59565b005b6103bd610b76565b6040516103ca91906126b6565b60405180910390f35b6103ed60048036038101906103e89190612709565b610c06565b6040516103fa91906126b6565b60405180910390f35b61041d60048036038101906104189190612709565b610c6c565b60405161042a9190612d23565b60405180910390f35b61044d60048036038101906104489190612d43565b610f66565b60405161045a9190612613565b60405180910390f35b61047d6004803603810190610478919061286c565b610ff4565b005b5f7f780e9d63000000000000000000000000000000000000000000000000000000007bffffffffffffffffffffffffffffffffffffffffffffffffffffffff1916827bffffffffffffffffffffffffffffffffffffffffffffffffffffffff191614806104f157506104f082611078565b5b9050919050565b60605f805461050690612dae565b80601f016020809104026020016040519081016040528092919081815260200182805461053290612dae565b801561057d5780601f106105545761010080835404028352916020019161057d565b820191905f5260205f20905b81548152906001019060200180831161056057829003601f168201915b5050505050905090565b5f61059182611159565b5061059b826111df565b9050919050565b6105b482826105af611218565b61121f565b5050565b5f600880549050905090565b5f73ffffffffffffffffffffffffffffffffffffffff168273ffffffffffffffffffffffffffffffffffffffff1603610634575f6040517f64a0ae9200000000000000000000000000000000000000000000000000000000815260040161062b9190612773565b60405180910390fd5b5f6106478383610642611218565b611231565b90508373ffffffffffffffffffffffffffffffffffffffff168173ffffffffffffffffffffffffffffffffffffffff16146106bd578382826040517f64283d7b0000000000000000000000000000000000000000000000000000000081526004016106b493929190612dde565b60405180910390fd5b50505050565b5f6106cd836108a4565b82106107125782826040517fa57d13dc000000000000000000000000000000000000000000000000000000008152600401610709929190612e13565b60405180910390fd5b60065f8473ffffffffffffffffffffffffffffffffffffffff1673ffffffffffffffffffffffffffffffffffffffff1681526020019081526020015f205f8381526020019081526020015f2054905092915050565b61078183838360405180602001604052805f815250610b59565b505050565b61078e61134b565b61079661096d565b73ffffffffffffffffffffffffffffffffffffffff166107b582610893565b73ffffffffffffffffffffffffffffffffffffffff161461080b576040517f08c379a000000000000000000000000000000000000000000000000000000000815260040161080290612eaa565b60405180910390fd5b61081d61081661096d565b83836113d2565b5050565b5f61082a6105b8565b821061086f575f826040517fa57d13dc000000000000000000000000000000000000000000000000000000008152600401610866929190612e13565b60405180910390fd5b6008828154811061088357610882612ec8565b5b905f5260205f2001549050919050565b5f61089d82611159565b9050919050565b5f8073ffffffffffffffffffffffffffffffffffffffff168273ffffffffffffffffffffffffffffffffffffffff1603610915575f6040517f89c62b6400000000000000000000000000000000000000000000000000000000815260040161090c9190612773565b60405180910390fd5b60035f8373ffffffffffffffffffffffffffffffffffffffff1673ffffffffffffffffffffffffffffffffffffffff1681526020019081526020015f20549050919050565b61096261134b565b61096b5f6113f1565b565b5f600a5f9054906101000a900473ffffffffffffffffffffffffffffffffffffffff16905090565b6060600180546109a490612dae565b80601f01602080910402602001604051908101604052809291908181526020018280546109d090612dae565b8015610a1b5780601f106109f257610100808354040283529160200191610a1b565b820191905f5260205f20905b8154815290600101906020018083116109fe57829003601f168201915b5050505050905090565b610a2d61134b565b5f600c5490506040518060a0016040528087815260200186815260200185815260200184815260200183815250600d5f8381526020019081526020015f205f820151815f019081610a7e9190613092565b506020820151816001019081610a949190613092565b506040820151816002019081610aaa9190613092565b506060820151816003019081610ac09190613092565b506080820151816004019081610ad69190613092565b50905050610aeb610ae561096d565b826114b4565b600c5f815480929190610afd9061318e565b91905055507f348608a3f654ddb2cfc35241062ee655c8038780efa8a0c8abdd221c11560a988187604051610b339291906131d5565b60405180910390a1505050505050565b610b55610b4e611218565b83836115a7565b5050565b610b648484846105c4565b610b7084848484611710565b50505050565b6060600b8054610b8590612dae565b80601f0160208091040260200160405190810160405280929190818152602001828054610bb190612dae565b8015610bfc5780601f10610bd357610100808354040283529160200191610bfc565b820191905f5260205f20905b815481529060010190602001808311610bdf57829003601f168201915b5050505050905090565b6060610c1182611159565b505f610c1b6118c2565b90505f815111610c395760405180602001604052805f815250610c64565b80610c43846118d8565b604051602001610c5492919061323d565b6040516020818303038152906040525b915050919050565b610c74612539565b600d5f8381526020019081526020015f206040518060a00160405290815f82018054610c9f90612dae565b80601f0160208091040260200160405190810160405280929190818152602001828054610ccb90612dae565b8015610d165780601f10610ced57610100808354040283529160200191610d16565b820191905f5260205f20905b815481529060010190602001808311610cf957829003601f168201915b50505050508152602001600182018054610d2f90612dae565b80601f0160208091040260200160405190810160405280929190818152602001828054610d5b90612dae565b8015610da65780601f10610d7d57610100808354040283529160200191610da6565b820191905f5260205f20905b815481529060010190602001808311610d8957829003601f168201915b50505050508152602001600282018054610dbf90612dae565b80601f0160208091040260200160405190810160405280929190818152602001828054610deb90612dae565b8015610e365780601f10610e0d57610100808354040283529160200191610e36565b820191905f5260205f20905b815481529060010190602001808311610e1957829003601f168201915b50505050508152602001600382018054610e4f90612dae565b80601f0160208091040260200160405190810160405280929190818152602001828054610e7b90612dae565b8015610ec65780601f10610e9d57610100808354040283529160200191610ec6565b820191905f5260205f20905b815481529060010190602001808311610ea957829003601f168201915b50505050508152602001600482018054610edf90612dae565b80601f0160208091040260200160405190810160405280929190818152602001828054610f0b90612dae565b8015610f565780601f10610f2d57610100808354040283529160200191610f56565b820191905f5260205f20905b815481529060010190602001808311610f3957829003601f168201915b5050505050815250509050919050565b5f60055f8473ffffffffffffffffffffffffffffffffffffffff1673ffffffffffffffffffffffffffffffffffffffff1681526020019081526020015f205f8373ffffffffffffffffffffffffffffffffffffffff1673ffffffffffffffffffffffffffffffffffffffff1681526020019081526020015f205f9054906101000a900460ff16905092915050565b610ffc61134b565b5f73ffffffffffffffffffffffffffffffffffffffff168173ffffffffffffffffffffffffffffffffffffffff160361106c575f6040517f1e4fbdf70000000000000000000000000000000000000000000000000000000081526004016110639190612773565b60405180910390fd5b611075816113f1565b50565b5f7f80ac58cd000000000000000000000000000000000000000000000000000000007bffffffffffffffffffffffffffffffffffffffffffffffffffffffff1916827bffffffffffffffffffffffffffffffffffffffffffffffffffffffff1916148061114257507f5b5e139f000000000000000000000000000000000000000000000000000000007bffffffffffffffffffffffffffffffffffffffffffffffffffffffff1916827bffffffffffffffffffffffffffffffffffffffffffffffffffffffff1916145b806111525750611151826119a2565b5b9050919050565b5f8061116483611a0b565b90505f73ffffffffffffffffffffffffffffffffffffffff168173ffffffffffffffffffffffffffffffffffffffff16036111d657826040517f7e2732890000000000000000000000000000000000000000000000000000000081526004016111cd9190612803565b60405180910390fd5b80915050919050565b5f60045f8381526020019081526020015f205f9054906101000a900473ffffffffffffffffffffffffffffffffffffffff169050919050565b5f33905090565b61122c8383836001611a44565b505050565b5f8061123e858585611c03565b90505f73ffffffffffffffffffffffffffffffffffffffff168173ffffffffffffffffffffffffffffffffffffffff16036112815761127c84611e0e565b6112c0565b8473ffffffffffffffffffffffffffffffffffffffff168173ffffffffffffffffffffffffffffffffffffffff16146112bf576112be8185611e52565b5b5b5f73ffffffffffffffffffffffffffffffffffffffff168573ffffffffffffffffffffffffffffffffffffffff1603611301576112fc84611f9c565b611340565b8473ffffffffffffffffffffffffffffffffffffffff168173ffffffffffffffffffffffffffffffffffffffff161461133f5761133e858561205c565b5b5b809150509392505050565b611353611218565b73ffffffffffffffffffffffffffffffffffffffff1661137161096d565b73ffffffffffffffffffffffffffffffffffffffff16146113d057611394611218565b6040517f118cdaa70000000000000000000000000000000000000000000000000000000081526004016113c79190612773565b60405180910390fd5b565b6113ec83838360405180602001604052805f8152506120e0565b505050565b5f600a5f9054906101000a900473ffffffffffffffffffffffffffffffffffffffff16905081600a5f6101000a81548173ffffffffffffffffffffffffffffffffffffffff021916908373ffffffffffffffffffffffffffffffffffffffff1602179055508173ffffffffffffffffffffffffffffffffffffffff168173ffffffffffffffffffffffffffffffffffffffff167f8be0079c531659141344cd1fd0a4f28419497f9722a3daafe3b4186f6b6457e060405160405180910390a35050565b5f73ffffffffffffffffffffffffffffffffffffffff168273ffffffffffffffffffffffffffffffffffffffff1603611524575f6040517f64a0ae9200000000000000000000000000000000000000000000000000000000815260040161151b9190612773565b60405180910390fd5b5f61153083835f611231565b90505f73ffffffffffffffffffffffffffffffffffffffff168173ffffffffffffffffffffffffffffffffffffffff16146115a2575f6040517f73c6ac6e0000000000000000000000000000000000000000000000000000000081526004016115999190612773565b60405180910390fd5b505050565b5f73ffffffffffffffffffffffffffffffffffffffff168273ffffffffffffffffffffffffffffffffffffffff160361161757816040517f5b08ba1800000000000000000000000000000000000000000000000000000000815260040161160e9190612773565b60405180910390fd5b8060055f8573ffffffffffffffffffffffffffffffffffffffff1673ffffffffffffffffffffffffffffffffffffffff1681526020019081526020015f205f8473ffffffffffffffffffffffffffffffffffffffff1673ffffffffffffffffffffffffffffffffffffffff1681526020019081526020015f205f6101000a81548160ff0219169083151502179055508173ffffffffffffffffffffffffffffffffffffffff168373ffffffffffffffffffffffffffffffffffffffff167f17307eab39ab6107e8899845ad3d59bd9653f200f220920489ca2b5937696c31836040516117039190612613565b60405180910390a3505050565b5f8373ffffffffffffffffffffffffffffffffffffffff163b11156118bc578273ffffffffffffffffffffffffffffffffffffffff1663150b7a02611753611218565b8685856040518563ffffffff1660e01b815260040161177594939291906132b2565b6020604051808303815f875af19250505080156117b057506040513d601f19601f820116820180604052508101906117ad9190613310565b60015b611831573d805f81146117de576040519150601f19603f3d011682016040523d82523d5f602084013e6117e3565b606091505b505f81510361182957836040517f64a0ae920000000000000000000000000000000000000000000000000000000081526004016118209190612773565b60405180910390fd5b805181602001fd5b63150b7a0260e01b7bffffffffffffffffffffffffffffffffffffffffffffffffffffffff1916817bffffffffffffffffffffffffffffffffffffffffffffffffffffffff1916146118ba57836040517f64a0ae920000000000000000000000000000000000000000000000000000000081526004016118b19190612773565b60405180910390fd5b505b50505050565b606060405180602001604052805f815250905090565b60605f60016118e6846120fd565b0190505f8167ffffffffffffffff8111156119045761190361289f565b5b6040519080825280601f01601f1916602001820160405280156119365781602001600182028036833780820191505090505b5090505f82602001820190505b600115611997578080600190039150507f3031323334353637383961626364656600000000000000000000000000000000600a86061a8153600a858161198c5761198b61333b565b5b0494505f8503611943575b819350505050919050565b5f7f01ffc9a7000000000000000000000000000000000000000000000000000000007bffffffffffffffffffffffffffffffffffffffffffffffffffffffff1916827bffffffffffffffffffffffffffffffffffffffffffffffffffffffff1916149050919050565b5f60025f8381526020019081526020015f205f9054906101000a900473ffffffffffffffffffffffffffffffffffffffff169050919050565b8080611a7c57505f73ffffffffffffffffffffffffffffffffffffffff168273ffffffffffffffffffffffffffffffffffffffff1614155b15611bae575f611a8b84611159565b90505f73ffffffffffffffffffffffffffffffffffffffff168373ffffffffffffffffffffffffffffffffffffffff1614158015611af557508273ffffffffffffffffffffffffffffffffffffffff168173ffffffffffffffffffffffffffffffffffffffff1614155b8015611b085750611b068184610f66565b155b15611b4a57826040517fa9fbf51f000000000000000000000000000000000000000000000000000000008152600401611b419190612773565b60405180910390fd5b8115611bac57838573ffffffffffffffffffffffffffffffffffffffff168273ffffffffffffffffffffffffffffffffffffffff167f8c5be1e5ebec7d5bd14f71427d1e84f3dd0314c0f7b2291e5b200ac8c7c3b92560405160405180910390a45b505b8360045f8581526020019081526020015f205f6101000a81548173ffffffffffffffffffffffffffffffffffffffff021916908373ffffffffffffffffffffffffffffffffffffffff16021790555050505050565b5f80611c0e84611a0b565b90505f73ffffffffffffffffffffffffffffffffffffffff168373ffffffffffffffffffffffffffffffffffffffff1614611c4f57611c4e81848661224e565b5b5f73ffffffffffffffffffffffffffffffffffffffff168173ffffffffffffffffffffffffffffffffffffffff1614611cda57611c8e5f855f80611a44565b600160035f8373ffffffffffffffffffffffffffffffffffffffff1673ffffffffffffffffffffffffffffffffffffffff1681526020019081526020015f205f82825403925050819055505b5f73ffffffffffffffffffffffffffffffffffffffff168573ffffffffffffffffffffffffffffffffffffffff1614611d5957600160035f8773ffffffffffffffffffffffffffffffffffffffff1673ffffffffffffffffffffffffffffffffffffffff1681526020019081526020015f205f82825401925050819055505b8460025f8681526020019081526020015f205f6101000a81548173ffffffffffffffffffffffffffffffffffffffff021916908373ffffffffffffffffffffffffffffffffffffffff160217905550838573ffffffffffffffffffffffffffffffffffffffff168273ffffffffffffffffffffffffffffffffffffffff167fddf252ad1be2c89b69c2b068fc378daa952ba7f163c4a11628f55a4df523b3ef60405160405180910390a4809150509392505050565b60088054905060095f8381526020019081526020015f2081905550600881908060018154018082558091505060019003905f5260205f20015f909190919091505550565b5f611e5c836108a4565b90505f60075f8481526020019081526020015f20549050818114611f33575f60065f8673ffffffffffffffffffffffffffffffffffffffff1673ffffffffffffffffffffffffffffffffffffffff1681526020019081526020015f205f8481526020019081526020015f205490508060065f8773ffffffffffffffffffffffffffffffffffffffff1673ffffffffffffffffffffffffffffffffffffffff1681526020019081526020015f205f8481526020019081526020015f20819055508160075f8381526020019081526020015f2081905550505b60075f8481526020019081526020015f205f905560065f8573ffffffffffffffffffffffffffffffffffffffff1673ffffffffffffffffffffffffffffffffffffffff1681526020019081526020015f205f8381526020019081526020015f205f905550505050565b5f6001600880549050611faf9190613368565b90505f60095f8481526020019081526020015f205490505f60088381548110611fdb57611fda612ec8565b5b905f5260205f20015490508060088381548110611ffb57611ffa612ec8565b5b905f5260205f2001819055508160095f8381526020019081526020015f208190555060095f8581526020019081526020015f205f905560088054806120435761204261339b565b5b600190038181905f5260205f20015f9055905550505050565b5f6001612068846108a4565b6120729190613368565b90508160065f8573ffffffffffffffffffffffffffffffffffffffff1673ffffffffffffffffffffffffffffffffffffffff1681526020019081526020015f205f8381526020019081526020015f20819055508060075f8481526020019081526020015f2081905550505050565b6120eb848484612311565b6120f784848484611710565b50505050565b5f805f90507a184f03e93ff9f4daa797ed6e38ed64bf6a1f0100000000000000008310612159577a184f03e93ff9f4daa797ed6e38ed64bf6a1f010000000000000000838161214f5761214e61333b565b5b0492506040810190505b6d04ee2d6d415b85acef81000000008310612196576d04ee2d6d415b85acef8100000000838161218c5761218b61333b565b5b0492506020810190505b662386f26fc1000083106121c557662386f26fc1000083816121bb576121ba61333b565b5b0492506010810190505b6305f5e10083106121ee576305f5e10083816121e4576121e361333b565b5b0492506008810190505b61271083106122135761271083816122095761220861333b565b5b0492506004810190505b60648310612236576064838161222c5761222b61333b565b5b0492506002810190505b600a8310612245576001810190505b80915050919050565b612259838383612479565b61230c575f73ffffffffffffffffffffffffffffffffffffffff168373ffffffffffffffffffffffffffffffffffffffff16036122cd57806040517f7e2732890000000000000000000000000000000000000000000000000000000081526004016122c49190612803565b60405180910390fd5b81816040517f177e802f000000000000000000000000000000000000000000000000000000008152600401612303929190612e13565b60405180910390fd5b505050565b5f73ffffffffffffffffffffffffffffffffffffffff168273ffffffffffffffffffffffffffffffffffffffff1603612381575f6040517f64a0ae920000000000000000000000000000000000000000000000000000000081526004016123789190612773565b60405180910390fd5b5f61238d83835f611231565b90505f73ffffffffffffffffffffffffffffffffffffffff168173ffffffffffffffffffffffffffffffffffffffff16036123ff57816040517f7e2732890000000000000000000000000000000000000000000000000000000081526004016123f69190612803565b60405180910390fd5b8373ffffffffffffffffffffffffffffffffffffffff168173ffffffffffffffffffffffffffffffffffffffff1614612473578382826040517f64283d7b00000000000000000000000000000000000000000000000000000000815260040161246a93929190612dde565b60405180910390fd5b50505050565b5f8073ffffffffffffffffffffffffffffffffffffffff168373ffffffffffffffffffffffffffffffffffffffff161415801561253057508273ffffffffffffffffffffffffffffffffffffffff168473ffffffffffffffffffffffffffffffffffffffff1614806124f157506124f08484610f66565b5b8061252f57508273ffffffffffffffffffffffffffffffffffffffff16612517836111df565b73ffffffffffffffffffffffffffffffffffffffff16145b5b90509392505050565b6040518060a0016040528060608152602001606081526020016060815260200160608152602001606081525090565b5f604051905090565b5f80fd5b5f80fd5b5f7fffffffff0000000000000000000000000000000000000000000000000000000082169050919050565b6125ad81612579565b81146125b7575f80fd5b50565b5f813590506125c8816125a4565b92915050565b5f602082840312156125e3576125e2612571565b5b5f6125f0848285016125ba565b91505092915050565b5f8115159050919050565b61260d816125f9565b82525050565b5f6020820190506126265f830184612604565b92915050565b5f81519050919050565b5f82825260208201905092915050565b5f5b83811015612663578082015181840152602081019050612648565b5f8484015250505050565b5f601f19601f8301169050919050565b5f6126888261262c565b6126928185612636565b93506126a2818560208601612646565b6126ab8161266e565b840191505092915050565b5f6020820190508181035f8301526126ce818461267e565b905092915050565b5f819050919050565b6126e8816126d6565b81146126f2575f80fd5b50565b5f81359050612703816126df565b92915050565b5f6020828403121561271e5761271d612571565b5b5f61272b848285016126f5565b91505092915050565b5f73ffffffffffffffffffffffffffffffffffffffff82169050919050565b5f61275d82612734565b9050919050565b61276d81612753565b82525050565b5f6020820190506127865f830184612764565b92915050565b61279581612753565b811461279f575f80fd5b50565b5f813590506127b08161278c565b92915050565b5f80604083850312156127cc576127cb612571565b5b5f6127d9858286016127a2565b92505060206127ea858286016126f5565b9150509250929050565b6127fd816126d6565b82525050565b5f6020820190506128165f8301846127f4565b92915050565b5f805f6060848603121561283357612832612571565b5b5f612840868287016127a2565b9350506020612851868287016127a2565b9250506040612862868287016126f5565b9150509250925092565b5f6020828403121561288157612880612571565b5b5f61288e848285016127a2565b91505092915050565b5f80fd5b5f80fd5b7f4e487b71000000000000000000000000000000000000000000000000000000005f52604160045260245ffd5b6128d58261266e565b810181811067ffffffffffffffff821117156128f4576128f361289f565b5b80604052505050565b5f612906612568565b905061291282826128cc565b919050565b5f67ffffffffffffffff8211156129315761293061289f565b5b61293a8261266e565b9050602081019050919050565b828183375f83830152505050565b5f61296761296284612917565b6128fd565b9050828152602081018484840111156129835761298261289b565b5b61298e848285612947565b509392505050565b5f82601f8301126129aa576129a9612897565b5b81356129ba848260208601612955565b91505092915050565b5f805f805f60a086880312156129dc576129db612571565b5b5f86013567ffffffffffffffff8111156129f9576129f8612575565b5b612a0588828901612996565b955050602086013567ffffffffffffffff811115612a2657612a25612575565b5b612a3288828901612996565b945050604086013567ffffffffffffffff811115612a5357612a52612575565b5b612a5f88828901612996565b935050606086013567ffffffffffffffff811115612a8057612a7f612575565b5b612a8c88828901612996565b925050608086013567ffffffffffffffff811115612aad57612aac612575565b5b612ab988828901612996565b9150509295509295909350565b612acf816125f9565b8114612ad9575f80fd5b50565b5f81359050612aea81612ac6565b92915050565b5f8060408385031215612b0657612b05612571565b5b5f612b13858286016127a2565b9250506020612b2485828601612adc565b9150509250929050565b5f67ffffffffffffffff821115612b4857612b4761289f565b5b612b518261266e565b9050602081019050919050565b5f612b70612b6b84612b2e565b6128fd565b905082815260208101848484011115612b8c57612b8b61289b565b5b612b97848285612947565b509392505050565b5f82601f830112612bb357612bb2612897565b5b8135612bc3848260208601612b5e565b91505092915050565b5f805f8060808587031215612be457612be3612571565b5b5f612bf1878288016127a2565b9450506020612c02878288016127a2565b9350506040612c13878288016126f5565b925050606085013567ffffffffffffffff811115612c3457612c33612575565b5b612c4087828801612b9f565b91505092959194509250565b5f82825260208201905092915050565b5f612c668261262c565b612c708185612c4c565b9350612c80818560208601612646565b612c898161266e565b840191505092915050565b5f60a083015f8301518482035f860152612cae8282612c5c565b91505060208301518482036020860152612cc88282612c5c565b91505060408301518482036040860152612ce28282612c5c565b91505060608301518482036060860152612cfc8282612c5c565b91505060808301518482036080860152612d168282612c5c565b9150508091505092915050565b5f6020820190508181035f830152612d3b8184612c94565b905092915050565b5f8060408385031215612d5957612d58612571565b5b5f612d66858286016127a2565b9250506020612d77858286016127a2565b9150509250929050565b7f4e487b71000000000000000000000000000000000000000000000000000000005f52602260045260245ffd5b5f6002820490506001821680612dc557607f821691505b602082108103612dd857612dd7612d81565b5b50919050565b5f606082019050612df15f830186612764565b612dfe60208301856127f4565b612e0b6040830184612764565b949350505050565b5f604082019050612e265f830185612764565b612e3360208301846127f4565b9392505050565b7f4e6f206572657320656c206475656e6f206f726967696e616c206465206c61205f8201527f6d6173636f746100000000000000000000000000000000000000000000000000602082015250565b5f612e94602783612636565b9150612e9f82612e3a565b604082019050919050565b5f6020820190508181035f830152612ec181612e88565b9050919050565b7f4e487b71000000000000000000000000000000000000000000000000000000005f52603260045260245ffd5b5f819050815f5260205f209050919050565b5f6020601f8301049050919050565b5f82821b905092915050565b5f60088302612f517fffffffffffffffffffffffffffffffffffffffffffffffffffffffffffffffff82612f16565b612f5b8683612f16565b95508019841693508086168417925050509392505050565b5f819050919050565b5f612f96612f91612f8c846126d6565b612f73565b6126d6565b9050919050565b5f819050919050565b612faf83612f7c565b612fc3612fbb82612f9d565b848454612f22565b825550505050565b5f90565b612fd7612fcb565b612fe2818484612fa6565b505050565b5b8181101561300557612ffa5f82612fcf565b600181019050612fe8565b5050565b601f82111561304a5761301b81612ef5565b61302484612f07565b81016020851015613033578190505b61304761303f85612f07565b830182612fe7565b50505b505050565b5f82821c905092915050565b5f61306a5f198460080261304f565b1980831691505092915050565b5f613082838361305b565b9150826002028217905092915050565b61309b8261262c565b67ffffffffffffffff8111156130b4576130b361289f565b5b6130be8254612dae565b6130c9828285613009565b5f60209050601f8311600181146130fa575f84156130e8578287015190505b6130f28582613077565b865550613159565b601f19841661310886612ef5565b5f5b8281101561312f5784890151825560018201915060208501945060208101905061310a565b8683101561314c5784890151613148601f89168261305b565b8355505b6001600288020188555050505b505050505050565b7f4e487b71000000000000000000000000000000000000000000000000000000005f52601160045260245ffd5b5f613198826126d6565b91507fffffffffffffffffffffffffffffffffffffffffffffffffffffffffffffffff82036131ca576131c9613161565b5b600182019050919050565b5f6040820190506131e85f8301856127f4565b81810360208301526131fa818461267e565b90509392505050565b5f81905092915050565b5f6132178261262c565b6132218185613203565b9350613231818560208601612646565b80840191505092915050565b5f613248828561320d565b9150613254828461320d565b91508190509392505050565b5f81519050919050565b5f82825260208201905092915050565b5f61328482613260565b61328e818561326a565b935061329e818560208601612646565b6132a78161266e565b840191505092915050565b5f6080820190506132c55f830187612764565b6132d26020830186612764565b6132df60408301856127f4565b81810360608301526132f1818461327a565b905095945050505050565b5f8151905061330a816125a4565b92915050565b5f6020828403121561332557613324612571565b5b5f613332848285016132fc565b91505092915050565b7f4e487b71000000000000000000000000000000000000000000000000000000005f52601260045260245ffd5b5f613372826126d6565b915061337d836126d6565b925082820390508181111561339557613394613161565b5b92915050565b7f4e487b71000000000000000000000000000000000000000000000000000000005f52603160045260245ffdfea26469706673582212203153493ca2433eae34011df02f7cf57d422a3c78d376b9f86a6e0b7939d1a99c64736f6c63430008140033",
  "immutableReferences": {},
  "source": "// SPDX-License-Identifier: MIT\r\n// Contrato inteligente PetsToken que implementa ERC-721\r\n// Adaptado para permitir transferencias y acceso continuo\r\n\r\npragma solidity ^0.8.0;\r\n\r\nimport \"@openzeppelin/contracts/token/ERC721/extensions/ERC721Enumerable.sol\";\r\nimport \"@openzeppelin/contracts/access/Ownable.sol\";\r\n\r\n// Declara el contrato PetsToken\r\ncontract PetsToken is ERC721Enumerable, Ownable {\r\n    // Declara variables de estado\r\n    string private _baseTokenURI;\r\n\r\n    // Contador para asignar IDs nicos a las mascotas\r\n    uint256 private nextTokenId;\r\n\r\n    // Mapeo de ID de token a informacin de mascota\r\n    mapping(uint256 => Mascota) private mascotas;\r\n\r\n    // Evento emitido cuando se tokeniza una nueva mascota\r\n    event MascotaTokenizada(uint256 tokenId, string nombre);\r\n\r\n    // Estructura para almacenar informacin de la mascota\r\n    struct Mascota {\r\n        string nombre;\r\n        string raza;\r\n        string color;\r\n        string historiaClinica;\r\n        string foto;\r\n    }\r\n\r\n    // Declara el constructor\r\n    constructor(string memory name, string memory symbol, string memory baseTokenURI, address initialOwner) ERC721(name, symbol) Ownable(initialOwner) {\r\n        _baseTokenURI = baseTokenURI;\r\n    }\r\n\r\n    // Funcin para tokenizar una nueva mascota\r\n    function tokenizarMascota(\r\n        string memory _nombre,\r\n        string memory _raza,\r\n        string memory _color,\r\n        string memory _historiaClinica,\r\n        string memory _foto\r\n    ) external onlyOwner {\r\n        uint256 tokenId = nextTokenId;\r\n        mascotas[tokenId] = Mascota(_nombre, _raza, _color, _historiaClinica, _foto);\r\n        _mint(owner(), tokenId);\r\n        nextTokenId++;\r\n\r\n        emit MascotaTokenizada(tokenId, _nombre);\r\n    }\r\n\r\n    // Funcin para transferir una mascota a otro dueo\r\n    function transferirMascota(address _nuevoDueno, uint256 _tokenId) external onlyOwner {\r\n        // Asegura que el dueo actual sea el propietario original del token\r\n        require(ownerOf(_tokenId) == owner(), \"No eres el dueno original de la mascota\");\r\n        \r\n        // Transfiere el token al nuevo dueno\r\n        _safeTransfer(owner(), _nuevoDueno, _tokenId);\r\n    }\r\n\r\n    // Funcin para obtener informacin de una mascota por su ID de token\r\n    function obtenerInformacionMascota(uint256 _tokenId) external view returns (Mascota memory) {\r\n        return mascotas[_tokenId];\r\n    }\r\n\r\n    // Funcin para obtener el URI base de los tokens\r\n    function getBaseTokenURI() external view returns (string memory) {\r\n        return _baseTokenURI;\r\n    }\r\n}\r\n",
  "sourcePath": "C:\\Users\\msmarcosg\\Desktop\\myproyecto\\contracts\\PetsToken.sol",
  "compiler": {
    "name": "solc",
    "version": "0.8.20+commit.a1b79de6.Emscripten.clang"
  },
  "schemaVersion": "3.4.16",
  "updatedAt": "2024-04-09T20:12:15.011Z",
  "devdoc": {
    "errors": {
      "ERC721EnumerableForbiddenBatchMint()": [
        {
          "details": "Batch mint is not allowed."
        }
      ],
      "ERC721IncorrectOwner(address,uint256,address)": [
        {
          "details": "Indicates an error related to the ownership over a particular token. Used in transfers.",
          "params": {
            "owner": "Address of the current owner of a token.",
            "sender": "Address whose tokens are being transferred.",
            "tokenId": "Identifier number of a token."
          }
        }
      ],
      "ERC721InsufficientApproval(address,uint256)": [
        {
          "details": "Indicates a failure with the `operator`s approval. Used in transfers.",
          "params": {
            "operator": "Address that may be allowed to operate on tokens without being their owner.",
            "tokenId": "Identifier number of a token."
          }
        }
      ],
      "ERC721InvalidApprover(address)": [
        {
          "details": "Indicates a failure with the `approver` of a token to be approved. Used in approvals.",
          "params": {
            "approver": "Address initiating an approval operation."
          }
        }
      ],
      "ERC721InvalidOperator(address)": [
        {
          "details": "Indicates a failure with the `operator` to be approved. Used in approvals.",
          "params": {
            "operator": "Address that may be allowed to operate on tokens without being their owner."
          }
        }
      ],
      "ERC721InvalidOwner(address)": [
        {
          "details": "Indicates that an address can't be an owner. For example, `address(0)` is a forbidden owner in EIP-20. Used in balance queries.",
          "params": {
            "owner": "Address of the current owner of a token."
          }
        }
      ],
      "ERC721InvalidReceiver(address)": [
        {
          "details": "Indicates a failure with the token `receiver`. Used in transfers.",
          "params": {
            "receiver": "Address to which tokens are being transferred."
          }
        }
      ],
      "ERC721InvalidSender(address)": [
        {
          "details": "Indicates a failure with the token `sender`. Used in transfers.",
          "params": {
            "sender": "Address whose tokens are being transferred."
          }
        }
      ],
      "ERC721NonexistentToken(uint256)": [
        {
          "details": "Indicates a `tokenId` whose `owner` is the zero address.",
          "params": {
            "tokenId": "Identifier number of a token."
          }
        }
      ],
      "ERC721OutOfBoundsIndex(address,uint256)": [
        {
          "details": "An `owner`'s token query was out of bounds for `index`. NOTE: The owner being `address(0)` indicates a global out of bounds index."
        }
      ],
      "OwnableInvalidOwner(address)": [
        {
          "details": "The owner is not a valid owner account. (eg. `address(0)`)"
        }
      ],
      "OwnableUnauthorizedAccount(address)": [
        {
          "details": "The caller account is not authorized to perform an operation."
        }
      ]
    },
    "events": {
      "Approval(address,address,uint256)": {
        "details": "Emitted when `owner` enables `approved` to manage the `tokenId` token."
      },
      "ApprovalForAll(address,address,bool)": {
        "details": "Emitted when `owner` enables or disables (`approved`) `operator` to manage all of its assets."
      },
      "Transfer(address,address,uint256)": {
        "details": "Emitted when `tokenId` token is transferred from `from` to `to`."
      }
    },
    "kind": "dev",
    "methods": {
      "approve(address,uint256)": {
        "details": "See {IERC721-approve}."
      },
      "balanceOf(address)": {
        "details": "See {IERC721-balanceOf}."
      },
      "getApproved(uint256)": {
        "details": "See {IERC721-getApproved}."
      },
      "isApprovedForAll(address,address)": {
        "details": "See {IERC721-isApprovedForAll}."
      },
      "name()": {
        "details": "See {IERC721Metadata-name}."
      },
      "owner()": {
        "details": "Returns the address of the current owner."
      },
      "ownerOf(uint256)": {
        "details": "See {IERC721-ownerOf}."
      },
      "renounceOwnership()": {
        "details": "Leaves the contract without owner. It will not be possible to call `onlyOwner` functions. Can only be called by the current owner. NOTE: Renouncing ownership will leave the contract without an owner, thereby disabling any functionality that is only available to the owner."
      },
      "safeTransferFrom(address,address,uint256)": {
        "details": "See {IERC721-safeTransferFrom}."
      },
      "safeTransferFrom(address,address,uint256,bytes)": {
        "details": "See {IERC721-safeTransferFrom}."
      },
      "setApprovalForAll(address,bool)": {
        "details": "See {IERC721-setApprovalForAll}."
      },
      "supportsInterface(bytes4)": {
        "details": "See {IERC165-supportsInterface}."
      },
      "symbol()": {
        "details": "See {IERC721Metadata-symbol}."
      },
      "tokenByIndex(uint256)": {
        "details": "See {IERC721Enumerable-tokenByIndex}."
      },
      "tokenOfOwnerByIndex(address,uint256)": {
        "details": "See {IERC721Enumerable-tokenOfOwnerByIndex}."
      },
      "tokenURI(uint256)": {
        "details": "See {IERC721Metadata-tokenURI}."
      },
      "totalSupply()": {
        "details": "See {IERC721Enumerable-totalSupply}."
      },
      "transferFrom(address,address,uint256)": {
        "details": "See {IERC721-transferFrom}."
      },
      "transferOwnership(address)": {
        "details": "Transfers ownership of the contract to a new account (`newOwner`). Can only be called by the current owner."
      }
    },
    "version": 1
  },
  "userdoc": {
    "kind": "user",
    "methods": {},
    "version": 1
  }
}